:020000040800F2
:1000000080A90324A9030008BD5300084F4300083A
:10001000D1520008F10D00083178000800000000FE
:100020000000000000000000000000008D6C0008CF
:100030008511000800000000870400085D6D0008BD
:10004000E3030008E3030008E3030008E3030008F8
:10005000E3030008E3030008E3030008E3030008E8
:10006000E3030008E3030008E3030008E3030008D8
:1000700009100008E3030008E3030008E303000895
:10008000E3030008E3030008E3030008E3030008B8
:10009000E3030008E3030008E3030008E3030008A8
:1000A000E3030008E3030008E3030008E303000898
:1000B000E3030008E3030008116E0008E3030008EF
:1000C000E3030008E3030008E3030008E303000878
:1000D000E3030008D1770008E3030008E303000806
:1000E000E3030008E303000800000000E303000846
:1000F000E3030008E3030008E3030008E303000848
:10010000E3030008E3030008E3030008E303000837
:10011000E3030008E3030008E3030008E303000827
:10012000E3030008E3030008E3030008E303000817
:10013000E303000889110008E3030008E303000853
:1001400000000000000000000000000000000000AF
:10015000E3030008E3030008E3030008E3030008E7
:10016000E3030008E3030008E3030008E3030008D7
:10017000E3030008E3030008850F00080000000007
:10018000E3030008E3030008E3030008E3030008B7
:10019000E3030008E3030008E3030008E3030008A7
:1001A000E3030008E3030008E3030008E303000897
:1001B000E3030008E3030008E3030008E303000887
:1001C000E3030008E3030008E3030008E303000877
:1001D000E3030008E3030008E3030008E303000867
:1001E000E3030008E3030008E3030008E303000857
:1001F000E3030008E3030008E3030008E303000847
:10020000E3030008E3030008E3030008E303000836
:10021000E3030008E3030008E3030008E303000826
:10022000E3030008E3030008E30300080000000004
:10023000E3030008E303000800000000E3030008F4
:10024000E3030008E3030008E3030008E3030008F6
:10025000E3030008E3030008E3030008E3030008E6
:10026000E3030008E3030008E3030008E3030008D6
:10027000E3030008E3030008E303000800000000B4
:10028000E303000800000000E30300080000000092
:1002900000000000E303000800F002F800F06DF831
:1002A0000AA090E8000C82448344AAF10107DA45D1
:1002B00001D100F062F8AFF2090EBAE80F0013F0B6
:1002C000010F18BFFB1A43F001031847E8FB0000B9
:1002D00008FC00000A444FF0000C10F8013B13F03A
:1002E000070408BF10F8014B1D1108BF10F8015B8F
:1002F000641E05D010F8016B641E01F8016BF9D182
:1003000013F0080F1EBF10F8014BAD1C0C1B09D1D8
:100310006D1E58BF01F801CBFAD505E014F8016B4A
:1003200001F8016B6D1EF9D59142D6D370470000DC
:100330000023002400250026103A28BF78C1FBD8EE
:10034000520728BF30C148BF0B607047642900F0D6
:10035000A181752900F09E81782900F0D781632959
:1003600000F00E84732900F01384002070471FB53D
:100370000FF0FCFB1FBD10B510BD00F059FC11467D
:10038000FFF7F5FF09F064FE00F077FC03B4FFF718
:10039000F2FF03BC07F054FA30BF72B6704762B682
:1003A000704780F30888704711488047DFF84400A1
:1003B000016841F470010160BFF34F8FDFF838002E
:1003C000016821F040410160BFF36F8F0B48004787
:1003D000FEE7FEE7FEE7FEE7FEE7FEE7FEE7FEE7F5
:1003E000FEE7FEE706480749074A084B704700004A
:1003F000816D000888ED00E034EF00E0990200080C
:1004000080A3032480A9032480A5032480A50324BA
:10041000EFF3098141B1F1EE101A40F8041D20ED0F
:10042000200A29490A6810607047B0EC200A02C807
:10043000E1EE101A25490A6810607047EFF310804A
:1004400072B6704780F31088704721484FF0FF0163
:100450000170002080F309881E48016881F3088834
:100460001D48012101701D484FF08051016062B6A6
:10047000FEE71A484FF080510160704717484FF06F
:1004800080510160704772B6EFF3098028B12038BF
:1004900080E8F00F0C490968086000B510488047F3
:1004A0005DF804EB0F4810490A78027006480749C6
:1004B0000A680260106890E8F00F203080F3098825
:1004C0004EF0F40E62B67047B4010024BC01002463
:1004D00022ED00E0D80100249B01002404ED00E09F
:1004E000C9620008980100249901002453EA020C13
:1004F00000F069802DE9F04B4FF00006002B1FBF84
:10050000B3FA83F503FA05F424FA05F65E4012BF48
:100510001643B2FA82F502FA05F4C5F120051EBFB2
:1005200022FA05FC44EA0C04203556EA044C4FEA52
:10053000144418BF641C4FF000084FF000099042AB
:1005400071EB030C39D3002919BFB1FA81F701FA15
:1005500007F6B0FA80F700FA07F6C7F120071EBFCA
:1005600020FA07FC46EA0C062037B6FBF4FCA7EBA2
:100570000507103F07F01F0BCBF120060CFA0BFB11
:100580002CFA06F644BFB3460026202FA4BF5E46D1
:100590004FF0000B5BEA060C08BF4FF0010B19EBA4
:1005A0000B09ABFB027C48EB0608C01B06FB02CC28
:1005B0000BFB03CC71EB0C01C1E70B460246414635
:1005C0004846BDE8F08B13B54FF000004FF0000136
:1005D000AFF30080BDE81C40704700000FB4044931
:1005E00010B503AA029800F0D7FA10BC5DF814FB0E
:1005F0001400002470B5044685690068C10601D561
:10060000302600E02026C00707D070BDD4E90121C4
:1006100030469047206A401C20626D1EF6D570BDA2
:1006200070B5044685690078C00707D170BDD4E96C
:10063000012120209047206A401C20626D1EF6D5C3
:1006400070BD70B50C460546012A05D02878800695
:1006500000D5EA69002302E0012305E05B1C934218
:1006600002D2E05C0028F9D1A869E618C01AA86196
:10067000286A184428622846FFF7BCFF04E0D5E941
:10068000012114F8010B9047B442F8D32846FFF734
:10069000C7FF70BD2DE9F04106460024106875299A
:1006A000314616A510D0AFF30080002802DA404290
:1006B00013A507E031688A0701D512A502E04907B2
:1006C00004D511A5012401E0AFF3008000210A2226
:1006D00006F1240709E0B0FBF2FCB0FBF2F302FBE9
:1006E0001C00303078541846491C0028F3D12346AA
:1006F0002A463046BDE8F04100F0C7B900000000CE
:100700002D0000002B0000002000000070B5044602
:100710000D4621461068AFF300802188090502D5F7
:100720000F4A7A4402E00E4A7A440E32002104F164
:10073000240305E000F00F060009965D5E54491C95
:100740000028F7D120780023000704D5702D02D0AF
:1007500009B1022311322046BDE8704000F095B97E
:1007600046F600002DE9F05F894604464FF0000A86
:10077000DFF874B1FB44C0F820A02046E168884748
:10078000002874D0252806D0D4E901219047206A9A
:10079000401C2062F1E700265F462046E16888475A
:1007A0002028054607DB312D05D2781910F8200CDA
:1007B00008B10643F1E7B00701D526F00406C4F8F6
:1007C0001CA00027C4F818A02A2D09D0284607F03D
:1007D00030F838B304EB8708303DC8F8185019E0FA
:1007E00059F8041B204604EB87029161E1688847B1
:1007F000012F054618D1E069002820DA26F02006EE
:100800001DE0D8F8180000EB800005EB4000303800
:10081000C8F818002046E1688847054607F009F83F
:100820000028EED1012F0AD02E2D08D12046E168F4
:1008300088477F1C0546022F46F02006C4DBA069CE
:10084000002803DA404246F00106A061F00701D01B
:1008500026F010066C2D0BD0682D09D04C2D39D008
:100860006A2D35D0742D35D07A2D33D016E038E08E
:10087000E1682F4620468847B842054609D16C2FCB
:1008800026D04FF48060E16806432046884705463D
:1008900004E06C2F1AD04FF4807006430DB3A5F11D
:1008A0004100192802D8203546F400664A462946F8
:1008B000204626604E46FFF749FD80B101280BD047
:1008C000F61D26F0070000F1080956E74020E4E78E
:1008D0008020D8E70020D6E706F104094DE7284636
:1008E00052E7206ABDE8F09F1CF6000040EA0103D1
:1008F00010B59B070FD1042A0DD310C808C9121FC9
:100900009C42F8D020BA19BA884201D9012010BD02
:100910004FF0FF3010BD1AB1D30703D0521C07E0CF
:10092000002010BD10F8013B11F8014B1B1B07D133
:1009300010F8013B11F8014B1B1B01D1921EF1D1A4
:10094000184610BD032A40F2308010F0030C00F06E
:10095000158011F8013BBCF1020F624498BF11F8F9
:1009600001CB00F8013B38BF11F8013BA2F10402B2
:1009700098BF00F801CB38BF00F8013B11F003032A
:1009800000F01C81083AC0F0088051F8043B083A96
:1009900051F804CBA0E80810F5E7121D5CBF51F830
:1009A000043B40F8043BAFF30080D20724BF11F8AA
:1009B000013B11F801CB48BF11F8012B24BF00F80F
:1009C000013B00F801CB48BF00F8012B70474FF006
:1009D000000200B5134694469646203922BFA0E88F
:1009E0000C50A0E80C50B1F12001BFF4F7AF09079B
:1009F00028BFA0E80C5048BF0CC05DF804EB89008C
:100A000028BF40F8042B08BF704748BF20F8022BCE
:100A100011F0804F18BF00F8012B70474FF0013CD8
:100A200050F8042B51F8043B9A4215D1A2EB0C0369
:100A3000934313EACC130BD150F8042B51F8043B29
:100A40009A4209D1A2EB0C03934313EACC13E7D0EB
:100A50004FF00000704700BFD01A01BAB1FA81F11F
:100A600001F0180122FA01F0CB40C1F12001DBB204
:100A7000C0B2C01A2CFA01F3D11A914311EAC31182
:100A8000E6D170477047704770472DE9F0470D4633
:100A900099469246044600F124080168880604D568
:100AA000E06921F01001216000E00120A84201DD91
:100AB000471B00E00027A1697A1902EB0900081A18
:100AC000A0612078C00602D42046FFF793FD0026DF
:100AD00008E0D4E901211AF806009047206A401C7A
:100AE000761C20624E45F4DB2078C0060AD52046ED
:100AF000FFF780FD06E0D4E9012130209047206A0D
:100B0000401C2062381EA7F10107F4DC07E0D4E99D
:100B1000012118F805009047206A401C2062281E19
:100B2000A5F10105F3DC2046FFF77AFD20780006E9
:100B300002D50220BDE8F0870120FBE701694A1CCD
:100B400002610878704700B58FB0CDE9013100210E
:100B5000059105497944CDE9031011466846FFF730
:100B600001FE0FB000BD0000E5FFFFFF10B54369B7
:100B700013B1AFF3008001E0FFF763FD012010BD6A
:100B8000127800F124010A7000224A700122EDE778
:100B900011684FF0FF32E9E7074B70B50D467B4413
:100BA000FFF7D1FF0446284600F03EF810B14FF0A1
:100BB000FF3070BD204670BD4781000010B5203A5F
:100BC000C0F00B80B1E81850203AA0E81850B1E806
:100BD0001850A0E81850BFF4F5AF5FEA027C24BFBC
:100BE000B1E81850A0E8185044BF18C918C0BDE8B3
:100BF00010405FEA827C24BF51F8043B40F8043B7C
:100C000008BF7047D20728BF31F8023B48BF11F830
:100C1000012B28BF20F8023B48BF00F8012B70478A
:100C2000004870471CA30324007B00F0800070473D
:100C30007546FFF7F5FFAE4605006946534620F0BE
:100C40000700854618B020B5FFF7CCFBBDE8204073
:100C50004FF000064FF000074FF000084FF0000B78
:100C600021F00701AC46ACE8C009ACE8C009ACE82B
:100C7000C009ACE8C0098D46704710B50446AFF313
:100C800000802046BDE81040FFF780BB03F060BB4A
:100C90002DE9F0470E0001464FF0000004461ABF50
:100CA00001EB06084FF0A009BDE8F0870702A8EBAA
:100CB0000400451E03F024FC280A09EB4000C0B2E2
:100CC00003F0E2FB03F070FCE8B203F0DDFB03F09D
:100CD0006BFC03F015FCA12003F0D6FB03F064FCD1
:100CE000002003F05DFB054603F032FC611CE819AF
:100CF000CCB2A642DAD8BDE8F08710B5044603F0BE
:100D0000FFFB200AA02101EB4000C0B203F0BCFBB6
:100D100003F04AFCE0B203F0B7FB03F045FC03F03C
:100D2000EFFBA12003F0B0FB03F03EFC002003F03A
:100D300037FB044603F00CFC204610BD2DE9F047BC
:100D400016000F4680464FF0000414BF4FF0A00A73
:100D5000BDE8F08708EB0405E00027FA00F000F09A
:100D6000FF0903F0CDFB280A0AEB4000C0B203F0F4
:100D70008BFB03F019FCE8B203F086FB03F014FCD4
:100D8000484603F081FB03F00FFC03F0E1FB0A206F
:100D900006F0E8FE601CC4B2A642DBD8BDE8F087CE
:100DA00070B50D46044603F0ABFB200AA02202EB0F
:100DB0004000C0B203F068FB03F0F6FBE0B203F0C2
:100DC00063FB03F0F1FB284603F05EFB03F0ECFB52
:100DD00003F0BEFBBDE870400A2006F0C3BE7047BA
:100DE00070477047704770477047704702F010B8FF
:100DF000FEE7000070B4BFF34F8FBFF36F8F1C4945
:100E000000200860BFF34F8FBFF36F8F194D296823
:100E100041F400312960BFF34F8FBFF36F8F164944
:100E20000860BFF34F8F081F006843F6FF76134A30
:100E3000C0F34E3CC0F3C90406EA4C11204641EA17
:100E400080731360401EFAD2BCF1010CF4D2BFF3E0
:100E50004F8F286840F480302860BFF34F8FBFF376
:100E60006F8F0748016841F00401016070BC704752
:100E700050EF00E014ED00E084ED00E060EF00E0F2
:100E80009CEF00E010B5806B816C496D022906D0A3
:100E9000012180F83510C16C41F04001C16400F0BF
:100EA000C3FC10BD2DE9F8438846314917468146F9
:100EB00008980A6842F001020A6009682D4C01F0A6
:100EC00001010091A4F150012B4E8C64A1632268B2
:100ED0009119B1F5956F116894BF21F0100121F0BF
:100EE000020111600025254921604B21C4E901154B
:100EF000C4E903504FF48050C4E905030011E061D8
:100F000040022062042060620120C4E90A051948F9
:100F1000256300F085FE174800F000FF1849B8F17E
:100F2000000F84F834501AD0124843464A460097BE
:100F300000F0C8FD20688119B1F5956F016894BF74
:100F400041F0100141F002010160032202210C2056
:100F500001F0C0FFBDE8F8430C2001F0ACBF01B0C8
:100F60003B464A460348BDE8F04301F041B8000063
:100F7000D844025828080024F0FFFDBF2800024092
:100F800028000248014800F06BBC0000D80700248C
:100F900070B50E4C20200C4E00252660C4E901508F
:100FA000E560204625616561A56100F0B1FCF56052
:100FB0002068C16841F00101C1602068016841F406
:100FC0008041016070BD000000000248D807002485
:100FD0000021084610B503F089FE03F0E5FF07483D
:100FE000074900680144016841F0010101600548BA
:100FF000016841F00101016010BD000028080024D3
:10100000F0FFFDBF00000248204830B4DFF880C088
:10101000204B0068204C214D6045214A04D92149CC
:10102000096801F400610CE0984204D91E4909687E
:1010300001F4006105E0A0421BD91C49096801F4D4
:101040000061002904BF30BC70474FF40061604567
:1010500084BF1748016008D8984288BF154803D854
:10106000A04288BF14480BD901601448406830BCC6
:101070000047A8428CBF5168116801F40061E0E7A5
:10108000A8428CBFD1609160EFE7000028080024DF
:10109000B804024058040240B80002405800024020
:1010A00000000240005402580404024000040240C0
:1010B000045402580C040240080402402C0000248E
:1010C00070B4D0F864C0846DDCF80450866E35438B
:1010D000CCF80450D0F86CC0BCF1000F07D0D0F8A9
:1010E00070C0DCF80450466F3543CCF80450224DF4
:1010F000D0F800C06544B5F5956F21D890F85CC074
:101100003F2505FA0CFCC4F808C0D0F800C0DCF894
:10111000004024F48024CCF80040D0F800C0CCF883
:1011200004308368402B05D103689A600068C16071
:1011300070BC7047036899600068C26070BC7047FB
:101140000E4CA444BCF18C0F84BF70BC7047DFF818
:1011500030C0DCF80040012690F85C5006FA05F536
:101160002C43CCF80040D0F800C0CCF804308368A1
:10117000402BDFD1D8E70000F0FFFDBFF8ABFDA7A3
:10118000045402587047000010B508F02DFF0748BE
:101190004FF40041006800F58050C0F86011402114
:1011A000C0F860110121C0F8601110BD7007002463
:1011B0002DE9F003846A00F11806D1F808C0002771
:1011C000254656F82430D3F80C8018F0004F40F034
:1011D000008191F8009019F0040F37D0D1F82490D5
:1011E0006FF30F0848EA090848F48038C3F80C8008
:1011F000D0F80080D8F8609049F48019C8F8609061
:1012000091F8008018F0080F20D0B1F82C80A3F8D6
:101210000A80D3F80C8048F40038C3F80C80D1F869
:10122000309028F4402848EA0908C3F80C80D0F828
:101230000080D8F8649049F48019C8F86490006878
:10124000D0F8508048F08068C0F85080087810F0DE
:10125000100F0BD09868D1F818806FF30D0040EA9A
:1012600008009860D86840F08060D860087810F076
:10127000140F18D0D868641C042C40F04040D8608B
:1012800028BF241F56F824300127D86810F0004FDB
:1012900009D056F82500C16821F00041C160BDE8C1
:1012A000F00302207047781CDCF800701F604FF0DC
:1012B00000099F68DCF804806FF30D0747EA080710
:1012C0009F60DCF80880B8F1000F04BFC3F80490F9
:1012D0006FF31D470AD0C446D8F80080C3F80480D5
:1012E0006FF31D47BCF8048047EA08479F600F78FA
:1012F00017F0100FDF680FD0B1F8208027F4F00747
:1013000047EAC847DF60D1F81C806FF3110747EA4E
:10131000080747F480271DE0D1F804806FF30E071B
:1013200047EA0807DF6091F8008018F0010F06D047
:10133000D1F8148027F4403747EA0807DF600F78B8
:1013400017F0200F07D0DF68D1F8108027F0406732
:1013500047EA0807DF600F7817F0040F07D09F688F
:10136000D1F8288027F4404747EA08079F60DF68E4
:1013700027F0804747F02047DF6091F8008018F0A1
:10138000020F06D0D1F80C8027F0607747EA0807F3
:10139000DF60DCF80870002F5AD0641C042C28BFD2
:1013A000241F56F82430DF6817F0004F15D056F888
:1013B0002520002100280CD9D3686D1C042D23F0B2
:1013C0000043D36028BF2D1F56F82520491C8142B9
:1013D000F2D3BDE8F00302207047DCF808C0401CDF
:1013E000DCF800701F609F68DCF804806FF30D0765
:1013F00047EA08079F60DCF80880B8F1000F04BFD7
:10140000C3F804906FF31D470AD0C446D8F8008093
:10141000C3F804806FF31D47BCF8048047EA08470F
:101420009F600F7817F0100FDF6822D0D1F81C8072
:101430006FF3110747EA080747F48027DF6027F0BA
:10144000804747F00047DF60DCF80870002FA4D128
:101450009868002A14BF40F0004020F000409860D7
:10146000D86840F08050D86034610020BDE8F003B7
:101470007047D1F804806FF30E0747EA0807DF6072
:1014800091F8008018F0010F1DBF27F44037D1F804
:10149000148047EA0807DF68D0D1D0E74DF8044D43
:1014A000026802F580521368D1F800C023F00203ED
:1014B00023F4F04343EA0C0313600A790B7B120315
:1014C00042EAC3328B681343026802F58052D2F8B5
:1014D00004C02CF0010C2CF4504C4CEA0303536074
:1014E0004B7B0A6A42EA0343026802F58052D2F853
:1014F00000C1164C0CEA040C4CEA0303C2F800319C
:101500000A7D4B7F120142EA03320B6913430268E2
:1015100002F58052D2F804C10D4C0CEA040C4CEADE
:101520000303C2F8043100688A69097F00F580501E
:1015300042EAC171D0F8082122F47C1222F0004264
:101540001143C0F808115DF8044B704700C0FEFF5E
:10155000EFEFC0FF4DF8044D0B688A6891F80CC09E
:101560001A430B79DB0643EACC531A434B7B42EA1E
:1015700083528B7B42EA4352CB7B42EA03530A7C81
:10158000002A0CBF0122002243EAC2434A7C002AFF
:101590000CBF0122002243EA42428B7C42EA034212
:1015A0004B691A438B691A430B7F42EA03324B7F24
:1015B00042EAC3238A7F002A0CBF0122002243EAA9
:1015C0008222CB7F42EA432391F82020002A0CBFDD
:1015D0000122002243EA02224B6A1A4391F8283082
:1015E00042EA0312CB6A13430268D2F800C0444CAB
:1015F0000CEA040C4CEA0303136091F83C2091F8C8
:101600003830520642EA036291F8303042EA8342AF
:1016100091F8313042EA434391F83220002A0CBF5E
:101620000122002243EA02424B6B13430268D2F8C4
:1016300004C0344C0CEA040C4CEA0303536091F8E8
:1016400040304A6C42EA03230268D2F80CC02CF006
:101650000F0C2CF4807C4CEA0303D36091F85430D7
:101660000A6D42EA430391F84C20002A0CBF012284
:101670000022D201B1F848C042EA0C42134302688A
:10168000D2F870C04FF60D740CEA040C4CEA030358
:10169000136791F8553091F8562042EA43030268E7
:1016A000D2F890C02CF0030C4CEA0303C2F890303F
:1016B0000268D2F8003DD1F858C023F0720343EA23
:1016C0000C03C2F8003D91F86020CB6D002A0CBFDE
:1016D0000122002243EA821291F8613091F86210EF
:1016E00000681B0143EAC1011143D0F8302D22F0FC
:1016F0007B021143C0F8301D5DF8044B70470000B9
:10170000838004000080F8C04DF8044DD1E9013217
:101710000C681343D1E903C24CEA02021A434B6935
:1017200013438A69012C046843EA020CCB690A6AF4
:10173000496A08D04CEA03031A4311436FF30E04BD
:10174000214301600BE024F4F8441A4321430A4387
:10175000416802606FF30E014CEA010141605DF8DF
:10176000044B00207047426942EA41014161002078
:10177000704781B0D1E900236FF01F0C1A438B68CA
:10178000C9680CEB431343EA412111430091016105
:10179000002001B070472DE9F001D1F804C06FF0CE
:1017A0000F050B682C015B1E05EB0C1C43EA0C03B8
:1017B000D1F808C04FEA0428270304EB0C2C43EAB5
:1017C0000C050B8A2604CC68012A826808EB034CBE
:1017D0008B8A097E07EB035306EB01610DD03613AC
:1017E00006EB04342C4344EA0C0C4CEA0303194383
:1017F00002F070421143816012E0240322F470422F
:10180000A4F58054234322F470021A43C36845EAC6
:101810000C0C826003F070434CEA01011943C16073
:10182000BDE8F001002070477047000010B508F0D7
:10183000CFF908484FF4005101F0DBFA064801687F
:10184000491C016005480068C16841F00101C160A0
:1018500010BD0000000C02582C000024D807002402
:101860002DE9F0410446006805694FF00406274F52
:1018700015F0040F0BD04661E06C40F00200E0640C
:1018800084F83560A06C0765A06C00F075F915F060
:10189000020F0DD0216802204861E06C40F0010089
:1018A000E06484F83560A06C0765A06C00F064F912
:1018B00015F0100F05D0216810204861204600F077
:1018C00085F815F0080F05D02168082048612046EA
:1018D00000F0F6F815F0010F08BFBDE8F0812068B0
:1018E000016811F0020F03D0C16821F01E01C16030
:1018F0002068C16821F00101C160216801204861B0
:101900002046FFF793FFBDE8F0810000850E000838
:10191000002804BF0120704710B5044690F8350038
:10192000002804BF204600F053F8022084F8350058
:1019300020680168244A11400160616960680843B9
:10194000D4E9031211430843A1680843A16908437D
:10195000216A0843616A0843A16A0843E16A0843AF
:10196000216B014320680268114301606068102800
:101970001DD14FF47F42617F207F4FF07F4392FA69
:10198000A2F293FAA3F3B2FA82F2B3FA83F391408C
:101990004FF47F020843A17F92FAA2F2B2FA82F2D8
:1019A0009140E27F9A401143084321688861206892
:1019B000C16841F01E01C1600020E064012084F88C
:1019C0003500002010BD000007F0E0FF7047000068
:1019D00034484DF804ED87B0016841F00101016021
:1019E000006800F0010005902F48016841F00101F6
:1019F0000160016801F001010591016841F00201F7
:101A00000160016801F002010591016841F00401E3
:101A10000160016801F004010591016841F00801CD
:101A20000160016801F008010591016841F0800141
:101A300001600068694600F0800005904020009039
:101A40000220019001200290032003900D200490B9
:101A5000164801F0B3F84FF46070009014486946DE
:101A600001F0ACF84FF43C6000901248694601F078
:101A7000A5F8082000901048694601F09FF84FF43F
:101A8000807000900D48694601F098F802224E20BF
:101A9000114601F01FFA4E2001F00DFA07B05DF873
:101AA00004FB0000DC440258E044025800000258E5
:101AB0000004025800080258000C0258001C02588A
:101AC00070470000F0B42B4D4FF0000C0468049EEA
:101AD0006719B7F5956F16D88768802F13D090F8DF
:101AE0003470012F02BF0220F0BC7047012780F83C
:101AF000347090F83570012F18BF4FF0020C08D0E9
:101B0000F0BC604670474FF4807141654FF0010CA6
:101B1000F6E7022780F83570276847F480272760AA
:101B20000468236103685E608368402B036803BF19
:101B30009A600268D16099601CBF0168CA6090F821
:101B40005C203F23816D03FA02F28A60416E4A688D
:101B5000836E1A434A60C16E21B1016F4A68436FB8
:101B60001A434A6000684119016841F001010160AF
:101B7000C6E70000F0FFFDBF002810B504BF01203C
:101B800010BD90F83510022903D080214165012055
:101B900010BD214A01688B18B3F5956F07D8042250
:101BA00080F83520086820F00100086032E00B68FA
:101BB00023F00E030B6001680A440A6822F0010258
:101BC0000A60016E0A6822F480720A6090F85C1064
:101BD0000122124B02FA01F11960416E4B68D0F8F4
:101BE00068C043EA0C034B60C16E51B10B6823F42B
:101BF00080730B60016F4B68D0F874C043EA0C032C
:101C00004B60002180F8341080F83520016D0029E8
:101C100018BF8847002010BDF0FFFDBF04540258D4
:101C2000002804BF0120704790F83510022904BF36
:101C300002207047344A01688B180B6823F00103B7
:101C40000B6001684FF0000C0A44B2F5956F24D880
:101C5000C1F800C00168C1F804C00168C1F808C03B
:101C60000168C1F80CC00168C1F810C021210268E8
:101C700051610168254BCAB2103A6FF30901A3FB09
:101C80000232234B1209032A9B5CC36588BF091DDE
:101C90003F2281659A408A6015E01E4A0A448C2AD8
:101CA00011D8C1F800C00168C1F804C00168C1F8CA
:101CB00008C00168C1F80CC0012290F85C1002FA5B
:101CC00001F1154A1160016E31B1C1F800C0416ED9
:101CD0004A68836E1A434A60C16E31B1C1F800C0D0
:101CE000016F4A68436F1A434A60C0F86CC0C0F87D
:101CF00070C0C0F874C0C0F854C080F835C080F817
:101D000034C0002070470000F0FFFDBFABAAAAAAB4
:101D100086FB0008F8ABFDA7045402582DE9F05FDC
:101D2000044601F06FF8002C07466ED0A149012649
:101D300020680025DFF880824FF0200942184FF01C
:101D4000030A02214FF0400BB2F5956F71D884F869
:101D5000345084F83510016821F0010101602068D9
:101D6000006810F0010F10D001F04CF8C01B0528DE
:101D700006D9C4F8549084F835A00120BDE8F09F3E
:101D80002068006810F0010FEED1216808688B4AC6
:101D90001040D4E902231A43D4E9043C43EA0C037B
:101DA0001A43A3691A43E3691A43236A1A43104387
:101DB000626A042A03D1D4E90B231A431043086052
:101DC000D4F800C0DCF8140020F00701606A042891
:101DD00040EA010239D1A16AE06A0A4320B3A3694B
:101DE00053B1B3F5005F15D000291CBF01290229AA
:101DF00023D003291ED028E019B1012906D00229D9
:101E000023D110F0807F20D017E01AE0B0F1C07F1E
:101E10001BD112E089B1012907D002290DD0032975
:101E200008BFB0F1C07F08D00FE010F0807F04D170
:101E30000BE022E010F0807F07D0C4F854B084F8A3
:101E400035604FF00100BDE8F09FCCF81420206809
:101E5000C1B2A1F110025A496FF30900A1FB02219E
:101E6000584A4FEA11110329525CE26588BF001DF0
:101E70003F21A0659140816037E000EB08028C2A89
:101E800084BFC4F854B084F835A0DAD884F834504C
:101E900084F835100268A16840296FF30D1208BF5D
:101EA000102104D080290CBF4FF480410021E36849
:101EB00041EAD301236941EAD301636941EAD301CD
:101EC000A36941EAD301E36909EAD3031943236A09
:101ED00041EA131111430160206800EB08013A4800
:101EE000A0FB011000098000E065216801EB0800FB
:101EF0008C28C8B23FD8A0F108013348A0FB0110DC
:101F00003249000901EB8001216606FA00F03049F0
:101F1000C4E91910A068802808BF65602079216E87
:101F20000860606E4168A26E114341606068411EA6
:101F3000072904D96FF080510144072930D8C0B275
:101F40002268411E07290ED842448C2A8CBF214AA0
:101F5000214A02EB8000E0668CBF204820482067C1
:101F600006FA01F06067E06E0560206F4168626FFD
:101F70001143416017E0A0F110021148A0FB0220BC
:101F8000184A00091144A82998BF0830164901EBE6
:101F90008001216606FA00F01449C4E91910B9E776
:101FA000E56625676567656584F835600020BDE8EE
:101FB000F09F0000F0FFFDBFF8ABFDA73F8010FED3
:101FC000ABAAAAAA86FB0008CDCCCCCC00580258FC
:101FD00080580258FC080240FC5802584009024050
:101FE00040590258F0FBFDBF000802408008024043
:101FF00070B504004FF0000504BF012070BD94F8D7
:102000003400012804BF022070BD012084F8340090
:1020100094F835C00020BCF1010F1CBF84F83400D7
:10202000022501D0284670BD4FF0020C84F835C05F
:1020300060652068D0F800C02CF0010CC0F800C02A
:102040002046FFF73DF82068016841F0010101607A
:10205000E8E770B4026C00F12C03446C002C53F8D8
:10206000221002BF012070BC7047D3F81CC0BCF125
:10207000000F18BF641C4FF0000C002C88BF4FF0FD
:10208000807522D90E690E60CD604E692EB14E6901
:102090008E60CE6846F00076CE60CE6846F0004690
:1020A000CE601E6A1EB1CE6846F08046CE609E6944
:1020B000761EB44505D2521C042A28BF121F53F8BD
:1020C00022100CF1010CA445DCD3006800F580500F
:1020D000C0F828110020986170BC704700EB810C9B
:1020E000002ADCF82CC018BF042903D30121416564
:1020F00008467047CCF80020002BCCF81020DCF804
:102100000C0040F08070CCF80C001FBFCCF80830F9
:10211000CCF8143040F00070CCF80C0008BFDCF8AC
:102120000C0040F00040CCF80C0000207047002963
:1021300004BF012070470268126802F00C02CA62F4
:1021400002681268C2F3001281F82820026812683F
:1021500002F060024A6202681368012222EA132335
:1021600081F8203003681B68C3F34023CB770368F2
:102170001B6822EA93238B7703681B68C3F3C02391
:102180004B7703681B68C3F300330B7703681B6846
:1021900003F400538B6103681B6803F480434B61B5
:1021A00003681B68C3F300438B7403681B6822EA4F
:1021B00053434B7403681B6822EAD3430B740368D0
:1021C0001B68C3F30053CB7303681B68C3F340530E
:1021D0008B7303681B68C3F380534B7303681B68DE
:1021E000C3F3C0530B7303681B6803F0E0638B6099
:1021F00003681B68C3F3C0630B7103681B6803F0BB
:10220000E0430B6003685B68C3F30D034B63036833
:102210005B6822EA134381F8323003685B68C3F3DA
:10222000404381F8313003685B68C3F3804381F831
:10223000303003685B68C3F3006381F838300368AB
:102240005B68C3F34463CB630368DB68C3F30023B9
:1022500081F840300368DB6803F00F034B640368C8
:102260001B6FC3F3400381F8543003681B6F22EAED
:10227000D31381F84C3003681B6F03F070030B65B8
:1022800003681B6F1B0C8B640368D3F8903003F05A
:10229000010381F856300368D3F89030C3F340034C
:1022A00081F855300368D3F8003D03F072038B6565
:1022B0000368D3F8303D03F02303CB650368D3F8FC
:1022C000303DC3F3C00381F862300368D3F8303D7A
:1022D000C3F3001381F861300068D0F8300D22EAB2
:1022E000901081F86000002070472DE9F043066CE3
:1022F00000F12C080746406C0C464FF0000958F8D6
:10230000265020B9384600F0DDF9002845D0D8F82D
:1023100018100020012923D0696969B1002C3CD034
:102320002969216079696160A468002C35D06969E8
:1023300021607969616003E02969216079696160E0
:10234000E968761C042EC1F30E0928BF361F58F821
:102350002650401CD8F81810A468491E8142DBD8CA
:10236000DCB1E8687969C0F30E00A0EB0900814296
:1023700024BF2969C4E900100CD2696969B12969CF
:10238000216079696160A16839B16A690A607A6916
:10239000801A48600020BDE8F0830120BDE8F0838A
:1023A00070B500F12C040E46D4E9055129B900F0AE
:1023B00089F9002804BF012070BD691EA069084486
:1023C000042828BF001F54F82000C068C0F30E0086
:1023D0003060002070BD0000002804BF012070475D
:1023E000F0B5044690F85100A3B0002804BF204681
:1023F00000F0E0F9232084F85100A848016841F07A
:1024000002010160006800F002000090207A0028BC
:1024100018BF4FF4000001F005FD206800F5805062
:10242000016841F00101016000F0ECFC0546206804
:1024300000F5805000684FF0E00710F0010F13D056
:1024400000F0E0FC401BB0F5FA7F06D9042060657F
:1024500084F8517023B00120F0BD206800F5805051
:10246000006810F0010FEBD12068D0F8000220F4D2
:10247000706501F011F88A498A4A0144914238BFD7
:1024800045F4007515D38849884A0144914238BF04
:1024900045F440750DD38649864A0144914208D3DC
:1024A000854908448549884234BF45F4807545F420
:1024B00080652068C0F8005200F0EEFF8049B0FB54
:1024C000F1F02168401EC1F8DC0000258DF81D5098
:1024D00001268DF804608DF80F6069467003069040
:1024E0008DF80E604FF4C3600D9020208DF80C50D5
:1024F00009958DF81F5012958DF832608DF828508F
:102500008DF8606017904FF040508DF838500F955F
:1025100002958DF861508DF81C5014958DF862501D
:102520000B958DF81E600090B0038DF811608DF84A
:1025300040508DF83150059002208DF812508DF8E2
:102540005650169020468DF820608DF854508DF826
:1025500030508DF810608DF80D508DF85550119554
:102560008DF84C60FEF7F6FF70058DF868601B96DD
:1025700019A98DF8715019958DF880508DF870500B
:102580001F901D904FF406708DF878508DF8815093
:1025900021902046FEF782FF206800F58050D0F899
:1025A000001121F4E01141F40021C0F8001161692B
:1025B00011F0030F05D0666584F8517023B0012037
:1025C000F0BD206800F58050D0F808216FF34E026E
:1025D00042EA4101C0F808110021E06801EB410224
:1025E00000EBC20004EB8102491C05600429456030
:1025F0008560C5609061F0D3A5620322206800F574
:102600008050C0F82C212068E16800F58050C0F8A7
:1026100014112068E16800F58050C0F820110021F5
:10262000206901EB410300EBC30004EB8103491C6B
:102630000560042945608560C56005614561D86213
:10264000EED3E56325646564E564A564216801F55E
:102650008051C1F830212168226901F58051C1F80B
:102660001C21216801F58051C1F8280160682168AA
:102670008088C1F8000360680178D0F8010041EA61
:1026800000202168C1F804036565102084F851001A
:1026900084F8520023B00020F0BD0000F44402583A
:1026A00000D3CEFEC0E1E40040F1E9FD40787D01B9
:1026B00000796CFC005A6202001F0AFA80F0FA02EC
:1026C00040420F00F0B400F12C02C06B0024A4467D
:1026D0002346956952F82010002D1EBF0020F0BC43
:1026E00070472EE0641C11F0805F1FD00CF1010CCC
:1026F000BCF1010F08BF0346411C042928BF091F74
:1027000052F82100C06810F0004F08D110F0804F3F
:1027100005D00120D061491C042928BF091FC2F837
:1027200018C0C2E90413F0BC0120704711F0005F2B
:102730000CD003464FF0010C401C04280BD252F879
:102740002010C96811F0004F09D106E0401C042890
:102750000CF1010CF3D3001FF1E7042CC2D3BCF140
:10276000000F1CBF52F82310002084BF4FF080756B
:102770004FF040761AD90C690C60CD604C69002C82
:102780001CBF8C60CE60CC6844F00044CC60176AFB
:10279000002F1CBF44F08044CC605B1C042B28BF7E
:1027A0001B1F52F82310401C6045E4D300209061A9
:1027B000F0BC704734484DF804ED87B0016841F033
:1027C00001010160016801F001010591016841F01A
:1027D00002010160016801F002010591016841F008
:1027E00004010160016801F004010591016841F0F4
:1027F00040010160006800F0400005902348016836
:1028000041F400410160016801F400410591016853
:1028100041F480310160016801F480310591016863
:1028200041F4003101600068002100F4003005909F
:10283000862000900220CDE9010103900B20049036
:102840006946134800F0BAF94FF40060009011484F
:10285000694600F0B3F9322000900F48694600F055
:10286000ADF94FF4C04000900C48694600F0A6F95D
:10287000002201213D2000F02DFB3D2000F01BFB3C
:1028800007B05DF804FB0000E0440258D844025849
:1028900000000258000402580008025800180258AC
:1028A00070B5044600681E46D0F8003213F0010FE0
:1028B0001CD1D0F8003223F0787343EA415121F45F
:1028C000F81141EA024141F00D01C0F8001200F098
:1028D00099FA05462068D0F8000210F0010F0DD0DB
:1028E00000F090FA401BB0F57A7F01D9012070BD4D
:1028F0002068D0F8000210F0010FF1D12068D0F864
:10290000040280B23060002070BD10B519B190F89B
:102910005220102A01D0012010BDFEF71BFE00201E
:1029200010BD000070B505460068D0F8000220F424
:10293000706400F0B1FD1149114A0144914238BF61
:1029400044F4007415D30F490F4A0144914238BF33
:1029500044F440740DD30D490D4A0144914208D30B
:102960000C4908440C49884234BF44F4807444F450
:1029700080642868C0F8004270BD000000D3CEFE1D
:10298000C0E1E40040F1E9FD40787D0100796CFC94
:10299000005A6202001F0AFA80F0FA0290F85120F1
:1029A0000021C36A102A1CBF01207047232280F82F
:1029B00051200022D3F80CC0491C04294CF0804C53
:1029C000C3F80CC028BF091F00EB8103521C042A66
:1029D000DB6AEFD30121C16401680A6842F0020298
:1029E0000A6001680A6842F001020A600168D1F8D1
:1029F000002D42F00102C1F8002D016801F580515F
:102A0000D1F8042142F00102C1F80421016801F566
:102A10008051D1F8082142F00102C1F80821016873
:102A200001F58051D1F8602142F48172C1F8602132
:102A3000102180F85110222180F85210006800F512
:102A40008050D0F834114DF241021143C0F83411D6
:102A5000002070472DE9F04100F1180615460446A4
:102A600041B194F8510010281CBF94F8510021285E
:102A700008D057E0606D40F0010060654FF0010044
:102A8000BDE8F0814FF0210084F851004FF00002C2
:102A90002046FEF78DFB30B1606D40F002006065AE
:102AA0000120BDE8F081A06A56F82060401C04288F
:102AB000A06224BF001FA06204EB8000216801F522
:102AC00080518069C1F8200100F09CF90746F06848
:102AD0004FF0100810F0004F2BD0206800F5805008
:102AE000D0F8600110F4805F0DD0606D40F00800F8
:102AF0006065206800F58050D0F86001A065E02096
:102B000084F851000EE0B5F1FF3F0ED025B100F082
:102B100079F9C01BA84208D9606D40F004006065D7
:102B200084F851800120BDE8F081F06810F0004F7A
:102B3000D3D184F851800020BDE8F08170B50446FF
:102B40000068D0F800C21CF0010F22D1D0F80002BA
:102B500020F0787040EA4150134920F4F81040EA20
:102B6000024020F00C009AB2C1F8042240F00500A7
:102B7000C1F8000200F046F905462068D0F80002CE
:102B800010F0010F0DD000F03DF9401BB0F57A7F39
:102B900001D9012070BD2068D0F8000210F0010FAB
:102BA000F1D1002070BD00000080024002480168A1
:102BB00041F0010101607047200400582DE9F84FF1
:102BC000DFF8209200220F274FF0010A4FF0B048A3
:102BD0004FF0030E0B680AFA02F52B40AB4240F0AF
:102BE000FB80D1F804C0BCF1020F18BFBCF1120F7A
:102BF00015D14FEAD20C00EB8C0CDCF820604FEAC8
:102C000042744FEAD46407FA04FB26EA0B06D1F8B3
:102C100010B00BFA04F444EA0604CCF8204006682D
:102C20004FEA420C91F804B00EFA0CF40BF0030BCF
:102C300026EA04060BFA0CFB4BEA060606604E6811
:102C4000012E18BF022E03D0112E18BF122E14D140
:102C50008668D1F80CB026EA04060BFA0CFB4BEAA6
:102C600006068660466826EA05050E79C6F3001654
:102C700006FA02F646EA05054560C56825EA040439
:102C80008D6805FA0CFC4CEA040CC0F80CC0D1F8B5
:102C900004C01CF0805F7CD0D9F800C04CF0020C5E
:102CA000C9F800C0D9F800C00CF0020CCDF800C083
:102CB00022F0030C0CF1B045D5F808C44FEA827439
:102CC0004FEA147407FA04F62CEA0606A0F1B04C99
:102CD000BCF5003C48D0A0F1B04CBCF5013C08BFAD
:102CE0004FF0010C40D0A0F1B04CBCF5023C08BF45
:102CF0004FF0020C38D0A0F1B04CBCF5033C08BF3B
:102D00004FF0030C30D0A0F1B04CBCF5043C08BF30
:102D10004FF0040C28D0A0F1B04CBCF5053C08BF26
:102D20004FF0050C20D0A0F1B04CBCF5063C08BF1C
:102D30004FF0060C18D0A0F1B04CBCF5073C08BF12
:102D40004FF0070C10D0A0F1B04CBCF5083C08BF08
:102D50004FF0080C08D0A0F1B04CBCF5093C0CBFFA
:102D60004FF0090C4FF00A0C0CFA04FC4CEA060C6C
:102D7000C5F808C4D8F880C04C682CEA030C14F4D9
:102D8000803F18BF4CEA030CC8F880C0D8F884C054
:102D900000E021E04C682CEA030C14F4003F18BF5B
:102DA0004CEA030CC8F884C0D8F800C04C682CEA80
:102DB000030C14F4801F18BF4CEA030CC8F800C0C1
:102DC000D8F804C04C682CEA030C14F4001F18BF98
:102DD0004CEA030CC8F804C0521C102AFFF4FAAEE7
:102DE000BDE8F88FF44402580069084018BF01207C
:102DF00070474269514041617047002A14BF018306
:102E000041837047014800687047000018000024A3
:102E100002480168491C0160704700001800002446
:102E2000032010B500F088F80F2000F005F800F03E
:102E300041F8002010BD000010B5044607484FF4CB
:102E40007A720068B0FBF2F001F002F8002221462D
:102E5000501E00F03FF8002010BD000000000024CC
:102E6000134A41781160111D03780A1D002B04BF1D
:102E7000002008601AD043680B60017BC37A090701
:102E800041EA0361837A41EAC341437B41EA8341DA
:102E9000837B41EA4341C37B41EA0341437A41EAF0
:102EA0000321037A007841EA430108431060704728
:102EB00098ED00E070470028B8BF704700F01F0190
:102EC000012202FA01F14009800000F1E020C0F87F
:102ED00000117047174B4DF8044D1B68C3F30223D4
:102EE000C3F1070CBCF1040F88BF4FF0040C1C1D8C
:102EF000072C34BF0023DB1E012404FA0CFCACF1C8
:102F0000010C0CEA0101994004FA03F35B1E1A401C
:102F1000114300284FEA0111B8BF00F00F0000F183
:102F2000E020ACBF80F8001480F8141D5DF8044B5D
:102F3000704700000CED00E0074A00F00700116840
:102F40004FF6FF03194041EA002040F0FD7040F0C9
:102F500080601060704700000CED00E010B500F0DC
:102F600007FB084909684FF4807292FAA2F201F453
:102F70007061B2FA82F2D140034A515CC840034901
:102F8000086010BD1844025876FB000800000024B9
:102F900010B500F081FA07490968102292FAA2F2EE
:102FA00001F07001B2FA82F2D140034A515CC8408C
:102FB00010BD00002044025876FB000850494DF82F
:102FC000044D0A68096812F003024E4BC1F3053143
:102FD0001B68DFF834C103F01003DCF800C0CCF349
:102FE000CC0C1CFB03F300EE103AB8EE400ADFED08
:102FF000470A474BB7EE001A06D0DFF818C1012A7E
:1030000025D0022A39D022E0434AD2F800C01CF071
:10301000200FDFF808C11AD0126880EE202AC2F310
:10302000C1022CFA02F2B2FBF1F101EE901A19681A
:10303000F8EE611AC1F3080100EE101AB8EE400A6A
:1030400032EE000A30EE010A21EE800A2BE080EE1B
:10305000202ABCFBF1F101EE901A1968F8EE611A12
:10306000C1F3080100EE101AB8EE400A32EE000A71
:1030700030EE010A21EE800A15E0294A80EE202A6E
:10308000B2FBF1F101EE901A1968F8EE611AC1F382
:10309000080100EE101AB8EE400A32EE000A30EED7
:1030A000010A21EE800A1968C1F34621491C00EE8D
:1030B000901AF8EE600A80EE201AFCEEC10AC0ED0C
:1030C000000A1968C1F30641491C00EE901AF8EE97
:1030D000600A80EE201AFCEEC10AC0ED010A1968F0
:1030E000C1F30661491C00EE901AF8EE600A80EE0A
:1030F000201ABCEEC10A80ED020A5DF8044B70474D
:10310000284402582C4402583C44025800F8FF4519
:103110003844025800093D00004402580090D00392
:1031200040787D0150494DF8044D0A68096812F055
:1031300003024E4BC1F305511B68DFF834C103F4A1
:103140008073DCF800C0CCF3CC0C1CFB03F300EE66
:10315000103AB8EE400ADFED470A474BB7EE001AC7
:1031600006D0DFF818C1012A25D0022A39D022E082
:10317000434AD2F800C01CF0200FDFF808C11AD073
:10318000126880EE202AC2F3C1022CFA02F2B2FBCE
:10319000F1F101EE901A1968F8EE611AC1F3080115
:1031A00000EE101AB8EE400A32EE000A30EE010AC4
:1031B00021EE800A2BE080EE202ABCFBF1F101EE2B
:1031C000901A1968F8EE611AC1F3080100EE101A9E
:1031D000B8EE400A32EE000A30EE010A21EE800A13
:1031E00015E0294A80EE202AB2FBF1F101EE901A97
:1031F0001968F8EE611AC1F3080100EE101AB8EE72
:10320000400A32EE000A30EE010A21EE800A196807
:10321000C1F34621491C00EE901AF8EE600A80EED8
:10322000201AFCEEC10AC0ED000A1968C1F306417C
:10323000491C00EE901AF8EE600A80EE201AFCEEAF
:10324000C10AC0ED010A1968C1F30661491C00EE0C
:10325000901AF8EE600A80EE201ABCEEC10A80EDEA
:10326000020A5DF8044B7047284402582C44025867
:103270004444025800F8FF454044025800093D000C
:10328000004402580090D00340787D012DE9F047BA
:10329000DFF8E49104460E46D9F8000000F007007C
:1032A000B0420CD2D9F8000020F007003043C9F832
:1032B0000000D9F8000000F00700B04247D12078A4
:1032C000DFF8B88110F0020F07D0D8F80000E168ED
:1032D00020F00F000843C8F80000207810F0010F1C
:1032E00070D0D8F80000A16820F470600843C8F8D6
:1032F000000060686249022825D0032828D00968A8
:1033000001282AD011F0040F6FD05E4F396821F0E8
:10331000070108433860FFF775FD0546606841F214
:10332000883A02281DD003282BD00128386800F0E5
:10333000380036D020B3FFF765FD401B50453DD91E
:103340000320BDE8F087096811F4003FDDD14CE0AF
:10335000096811F0007FD8D147E011F4807FD4D103
:1033600043E0386800F0380010282BD0FFF74AFD02
:10337000401B5045E4D8386800F038001028F5D1DB
:1033800020E0386800F0380018281BD0FFF73AFD1D
:10339000401B5045D4D8386800F038001828F5D1C3
:1033A00010E008280ED0FFF72DFD401B5045C7D870
:1033B000386800F038000828F5D103E0386810F0CC
:1033C000380FB8D1D9F8000000F00700B0420FD98B
:1033D000D9F8000020F007003043C9F80000D9F800
:1033E000000000F00700B04202D00120BDE8F087E5
:1033F000207810F0040F07D0D8F80000216920F0E1
:1034000070000843C8F80000207810F0080F1E482C
:1034100005D00168626921F07001114301602178D3
:1034200011F0100F05D00168A26921F4E061114389
:103430000160207810F0200F06D014480168E2697E
:1034400021F070011143016000F092F8D8F80010EB
:103450004FF4807292FAA2F201F47061B2FA82F231
:10346000D1400B4A515CC8400A4908600F20FFF761
:10347000E3FC0020BDE8F087002000521844025809
:1034800000440258104402581C4402582044025878
:1034900076FB00080000002410B5FFF75FFD084927
:1034A0000968012292FAA2F201F00F01B2FA82F247
:1034B000D140044A515CC8400349086010BD000077
:1034C0001844025876FB00080400002410B5FFF7EA
:1034D00045FD0E490968012292FAA2F201F00F019E
:1034E000B2FA82F221FA02F209498A5CD040094A12
:1034F0001060094A1268102393FAA3F302F07002D5
:10350000B3FA83F3DA40895CC84010BD184402580E
:1035100076FB0008040000241C44025810B5FFF795
:103520001DFD0F490968012292FAA2F201F00F0174
:10353000B2FA82F221FA02F20A498A5CD0400A4ABF
:1035400010600A4A12684FF4807393FAA3F302F4EE
:10355000E062B3FA83F3DA40895CC84010BD000032
:103560001844025876FB0008040000241C4402584A
:103570004D4870B400684E4C10F038014B480ED0E6
:1035800008294FEA201C07D04A4D102902BF2846BF
:1035900070BC704718290ED070BC60467047216817
:1035A00011F0200F04BF70BC7047216870BCC1F3DC
:1035B000C101C840704740490A68096812F0030217
:1035C0003E4BC1F305111B683D4E03F00103366805
:1035D000DFED3C0AB7EE001AC6F3CC0616FB03F388
:1035E00000EE103A384BB8EE400A19D0012A01D04B
:1035F000022A33D080EE202ABCFBF1F001EE900AC3
:103600001868F8EE611AC0F3080000EE100AB8EE70
:10361000400A32EE000A30EE010A21EE800A32E062
:10362000226812F0200F03D02268C2F3C102D040FA
:1036300080EE202AB0FBF1F001EE900A1868F8EE57
:10364000611AC0F3080000EE100AB8EE400A32EE2C
:10365000000A30EE010A21EE800A14E080EE202AF2
:10366000B5FBF1F001EE900A1868F8EE611AC0F3AC
:10367000080000EE100AB8EE400A32EE000A30EE02
:10368000010A21EE800A186870BCC0F34620401C75
:1036900000EE900AF8EE600A80EE201ABCEEC10A35
:1036A00010EE100A70470000104402580090D0033A
:1036B0000044025840787D01284402582C440258A6
:1036C0003444025800F8FF45304402582DE9F05FB9
:1036D00004460078FE4F41F28838FE4E10F0010F8C
:1036E000FD4D5CD0386800F0380010281DD03868D7
:1036F00000F03800182804D1306800F003000228D8
:1037000013D06068B0F5803F04BF286840F4803073
:1037100014D010B1B0F5A02F1BD0286820F4803051
:103720002860286820F4802008E0286810F4003F12
:1037300035D06068002800F08C8230E02860606836
:10374000D8B1FFF75FFB8146286810F4003F08D02E
:1037500025E0286840F480202860286840F4803004
:10376000ECE7FFF74FFBA0EB0900404500F2CA81F0
:10377000286810F4003FF4D011E0FFF743FB8146C6
:10378000286810F4003F0AD0FFF73CFBA0EB0900CB
:10379000404500F2B781286810F4003FF4D120784A
:1037A000DFF838A310F0020F6ED038684FF47C3B7E
:1037B00010F0380F18D0386800F03800182804BF0F
:1037C000306810F0030F0FD0E06870B3296821F063
:1037D000190141EA00002860FFF714FB81462868C0
:1037E00010F0040F22D02CE0286810F0040F03D052
:1037F000E068002800F02D822868E16820F01900B8
:1038000008432860FFF7FEFA8146286810F0040F8D
:1038100017D1FFF7F7FAA0EB0900022800F2728136
:10382000286810F0040FF4D00BE018E0FFF7EAFA74
:10383000A0EB0900022800F26581286810F0040F4F
:10384000F4D0DAF800009BFAABF22169B2FA82F206
:1038500020F47C3091400843CAF8000014E0286846
:1038600020F001002860FFF7CDFA8146286810F0AB
:10387000040F09D0FFF7C6FAA0EB090002287CD894
:10388000286810F0040FF5D1207810F0100F54D0F4
:1038900038684FF0F84B00F03800082818D0386826
:1038A00000F03800182804D1306800F00300012827
:1038B0000ED0E069002828682BD040F080002860F6
:1038C000FFF7A0FA8146286810F4807F09D012E043
:1038D000286810F4807F1CBFE06980280BD000F0BE
:1038E000B8B9FFF78FFAA0EB0900022845D828687D
:1038F00010F4807FF5D0DAF800009BFAABF2216A71
:10390000B2FA82F220F0F84091400843CAF8000071
:1039100013E020F080002860FFF774FA81462868E1
:1039200010F4807F09D0FFF76DFAA0EB09000228A0
:1039300023D8286810F4807FF5D1207810F0080F84
:1039400037D0DFF89CA160690028DAF8000019D0B0
:1039500040F00100CAF80000FFF754FA8146DAF897
:10396000000010F0020F24D1FFF74CFAA0EB090081
:10397000022802D8DAF8000000E093E010F0020F0D
:10398000F2D016E020F00100CAF80000FFF73AFA82
:103990008146DAF8000010F0020F0AD0FFF732FA81
:1039A000A0EB090002287DD8DAF8000010F0020F21
:1039B000F4D1207810F0200F2CD0A06900282868BE
:1039C00014D040F480502860FFF71CFA8146286824
:1039D00010F4005F1ED1FFF715FAA0EB09000228D2
:1039E00060D8286810F4005FF5D013E020F4805010
:1039F0002860FFF707FA8146286810F4005F09D0B5
:103A0000FFF700FAA0EB090002287BD8286810F421
:103A1000005FF5D1207810F0040F4BD0DFF8C4A080
:103A2000DAF8000040F48070CAF80000FFF7EAF905
:103A30008146DAF8000010F4807F0AD1FFF7E2F93E
:103A4000A0EB090064285DD8DAF8000010F4807F4C
:103A5000F4D0A068DFF890A0012804BFDAF80000D5
:103A600040F001000CD008B105284ED0DAF8000073
:103A700020F00100CAF80000DAF8000020F004008D
:103A8000CAF80000A06801284BD0FFF7BBF98146B7
:103A9000DAF8000010F0020F0CD0FFF7B3F9A0EB3A
:103AA000090000E02EE040452CD8DAF8000010F0C4
:103AB000020FF2D1606A98B3396801F03801182911
:103AC0007DD00228286820F0807028603DD00DE06D
:103AD0001044025828440258004402580444025832
:103AE000744402580048025870440258FFF78AF99B
:103AF0000446286810F0007F12D0FFF783F9001BFE
:103B000002287CD90320BDE8F09FDAF8000040F0DD
:103B10000400CAF80000DAF8000040F00100AFE746
:103B200094E0FFF76FF98146DAF8000010F0020F19
:103B3000C0D1FFF767F9A0EB09004045E2D8DAF8F9
:103B4000000010F0020FF4D0B4E7FFF75BF907466E
:103B5000286810F0007F08D0FFF754F9C01B022836
:103B6000D0D8286810F0007FF6D13068E16A20F0E4
:103B7000F30020F4407040EA0110A16A084330606D
:103B800094F834004FF4FE02218E4002491EA0F545
:103B9000007000F47E40C1F308010843218F491EE4
:103BA00002EA0141084394F83C101202491E02EA5D
:103BB0000161084328490860081D016800E048E0E9
:103BC0004FF6F873A26C6FF3CF0193FAA3F3B3FA35
:103BD00083F39A401143016020480168226C21F070
:103BE0000C01114301600168626C21F00201114374
:103BF0000160016841F480310160016800E020E06B
:103C000041F400310160016841F4802101600168E4
:103C100041F001010160286840F080702860FFF7E2
:103C2000F1F80446286810F0007F0FD1FFF7EAF89A
:103C3000001B02283FF666AF286810F0007FF5D021
:103C400004E0286810F0007F7FF457AF0020BDE843
:103C5000F09F0120BDE8F09F304402582C440258E8
:103C6000002804BF0120704770B5044690F82C006E
:103C70000D4628B9002084F82D00204600F018F8E1
:103C8000022084F82C002068211DFDF73DFDD4E9B9
:103C900000022946FDF77FFD0448016841F000411C
:103CA0000160012084F82C00002070BD004000520B
:103CB0003A484DF804ED87B0016841F00201016017
:103CC000006800F0020005903548016841F4805119
:103CD0000160006800F4805005903248016841F0AE
:103CE00004010160016801F004010591016841F0DF
:103CF00008010160016801F008010591016841F0C7
:103D000010010160016801F010010591016841F0A6
:103D100020010160016801F020010591016841F076
:103D2000400101600068002100F0400005904FF064
:103D3000806000F06DF800214FF0006000F068F83E
:103D40000D2000900220019001200290032003909A
:103D50000C20049014486946FEF730FF4CF20370C3
:103D6000009012486946FEF729FF4FF683700090D5
:103D70000F486946FEF722FF4FF63F0000900D48BE
:103D80006946FEF71BFF48F2371000900A48694663
:103D9000FEF714FF07B05DF804FB0000F44402587E
:103DA000D4440258E044025800080258000C02585B
:103DB00000100258001402580018025810B50446AA
:103DC00090F82C00022808BF10BD022084F82C00B7
:103DD0002068FDF7C8FC012084F82C00002010BDED
:103DE00070B5044690F82C000D46022808BF70BD3F
:103DF000022084F82C002068FDF7BBFC286802280C
:103E00000CBF0520012084F82C00002070BD0000AC
:103E1000034A136823EA000008431060704700005B
:103E20000404005803490A6822F460021043086041
:103E300070470000040400584FF0E021042808698E
:103E40000CBF40F0040020F004000861704700003F
:103E5000401EB0F1807F24BF012070474FF0E02169
:103E60004861F020044A82F8140D00208861072080
:103E700008610020704700000FE000E0002804BF48
:103E80000120704710B5044690F83D0028B9002085
:103E900084F83C00204600F00CF8022084F83D0035
:103EA0002068211D02F0CEFF012084F83D00002093
:103EB00010BD70470168CA6842F00102CA6000681C
:103EC000018841F001010180002070477047704770
:103ED00090F8791090F87A000843704770B501683F
:103EE0000446C8690B688A6810F00F0F4FF0200570
:103EF00060D0DFF82CC203F4907602EA0C0C5CEA86
:103F0000060C7DD010F0010F18BF13F4807F07D08E
:103F10004FF0010CC1F820C0E16F41F00101E167F1
:103F200010F0020F18BF12F0010F08D0D4F800C033
:103F30000221CCF82010E16F41F00401E16710F09C
:103F4000040F18BF12F0010F08D0D4F800C00421EC
:103F5000CCF82010E16F41F00201E16710F0080F8A
:103F600013D003F0200102F0805C41EA0C0102F062
:103F7000010C51EA0C0108D0D4F800C00821CCF89B
:103F80002010E16F41F00801E167E16F002908BFEF
:103F900070BD10F0200F08D003F0200002F0805117
:103FA00008431CBF204603F056F8E06F10F0080FDE
:103FB00014D10EE010F0200F40D003F0200C02F0DE
:103FC00080565CEA060C39D02046BDE8704003F00C
:103FD00042B82068806810F0400F29D0206801683E
:103FE00021F4907101602068816821F001018160F5
:103FF00084F87A502068816811F0400F14D000E0F6
:104000001CE0816821F040018160606F60B145492A
:104010000165606FFDF7B0FD002808BF70BD606FDF
:10402000016DBDE8704008472046FFF750FF70BDA6
:104030002046FFF74CFF0020E06770BD10F4801FA2
:1040400018BF12F4800F0BD04FF48010086284F870
:10405000795084F87A502046BDE87040FFF736BFAB
:1040600010F0800F40D003F0800C02F400025CEAF4
:10407000020239D094F87900212818BF70BDB4F835
:104080006200A0B1A068B0F5805F04BF206900287D
:10409000E06D20D000F10101E1652168007808851C
:1040A000B4F86200A0F10100A4F8620070BD0868D5
:1040B00010F0005F08461DBF806820F40000886093
:1040C000006804BF20F0800008602068016841F0AB
:1040D0004001016070BD0088C0F308000885E06DF4
:1040E00000F10200E065DBE710F0400F18BF13F0AD
:1040F000400F09D00A68204622F040020A6084F886
:10410000795000F023F970BD10F4000F14BF13F0C4
:10411000804F70BD086820F08040086070BD0000CE
:104120000100001043700008002804BF0120704700
:1041300010B5044690F8790028B9002084F878007A
:10414000204600F029F8242084F8790020680168CE
:1041500021F001010160204602F0BEFF012808BFE6
:1041600010BD606B00281CBF204602F0CDFE206809
:10417000416821F4904141602068816821F02A0162
:1041800081602068016841F0010101602046BDE8BE
:10419000104002F026BF000010B5006886B0A0F104
:1041A0008041B1F588311CBF06B010BD18480168C8
:1041B00041F001010160006800F001000590154820
:1041C000016841F01001016000680121124C00F00B
:1041D000100005904FF4007000900220CDE901011D
:1041E00003900720694604902046FEF7E7FC4FF451
:1041F0008061204600916946FEF7E0FC2520FEF72D
:104200005AFE032225201146FEF764FE06B010BDBB
:10421000E0440258F04402580000025890F87A3006
:10422000202B52D1002912BF002A0120704790F89C
:104230007830012B49D0012380F878304166A0F80E
:104240006820A0F86A20FF228168B1F5805F05D060
:104250007F2351B1B1F1805F0CD012E001690029D8
:1042600008BF40F2FF1102D109E0016921BBA0F8AB
:104270006C2006E00169002918BF3F211CD0A0F87E
:104280006C100021C167222280F87A2080F8781013
:1042900001688A6842F001028A6001680A6812F0C7
:1042A000005F0CD00A6842F480720A60006881687E
:1042B00041F08051816006E0A0F86C30E1E70868C9
:1042C00040F49070086000207047022070470000A2
:1042D0004DF8044D0068A0F18041B1F588311CBF54
:1042E0005DF8044B7047174A508810F4004F1CBF0C
:1042F0005DF8044B704710F4804F4FF000031149F4
:10430000097808D00A2908BF40F4004016D053802D
:104310005DF8044B70470D2908BF40F480400DD074
:10432000094CC0F30D0C401C80B2C72804F80C10D7
:1043300050809CBF5DF8044B7047E8E750805DF803
:10434000044B704710000024D00400247047FEE79F
:10435000114810B586B0016841F080010160006825
:1043600069460E4C00F0800005903020009001203E
:1043700001900290032003902046FEF71FFC0122CB
:1043800020462021FEF739FD012220461021FEF7AC
:1043900034FD06B010BD0000E0440258001C025875
:1043A0002DE9F041374E07460024306820F4406084
:1043B0003060306830602546002230461021FEF71C
:1043C0001CFD022003F008FC012230461021FEF7FC
:1043D00014FD60062021040E3046FEF705FD00287E
:1043E0001CBF601CC4B2012003F0F6FB681CC5B200
:1043F000082DE1D34FF000024FF0100130460FB30B
:10440000FEF7FBFC306820F440603060306840F418
:1044100080603060002230462021FEF7EEFC022052
:1044200003F0DAFB012230461021FEF7E6FC022001
:1044300003F0D2FB002230461021FEF7DEFC2046BE
:10444000BDE8F081FEF7D9FC306820F440603060B0
:10445000306840F480603060012230462021FEF751
:10446000CCFC022003F0B8FB012230461021FEF7FD
:10447000C4FC022003F0B0FB002230461021FEF7FE
:10448000BCFCDCE7001C025870B51C4E05463046EB
:10449000316821F440613160316841F480613160FC
:1044A00000221021FEF7A9FC002415F0800F05D092
:1044B000012230462021FEF7A0FC04E00022304615
:1044C0002021FEF79AFC6806050E022003F084FB0B
:1044D000012230461021FEF790FC022003F07CFB05
:1044E000002230461021FEF788FC022003F074FB06
:1044F000601CC4B2082CD8D370BD0000001C025848
:1045000010B5124C206820F440602060206840F410
:1045100080602060012220462021FEF76EFC0122EF
:1045200020461021FEF769FC042003F055FB002211
:1045300020462021FEF761FC042003F04DFB002201
:104540002046BDE810401021FEF757BC001C025861
:1045500010B5144C206820F440602060206840F4BE
:1045600080602060002220461021FEF746FC0022D9
:1045700020462021FEF741FC042003F02DFB012200
:1045800020461021FEF739FC042003F025FB012210
:1045900020462021FEF731FCBDE81040042003F046
:1045A0001BBB0000001C025870B52B4D002428686E
:1045B00020F44060286028682860012220212846D5
:1045C000FEF71BFC012003F007FB01222846102107
:1045D000FEF713FC012003F0FFFA20212846FEF726
:1045E00003FC002830D0601CC4B2FA2C26D92868FD
:1045F00020F440602860286840F480602860002231
:1046000028461021FEF7F9FB002228462021FEF75C
:10461000F4FB042003F0E0FA012228461021FEF703
:10462000ECFB042003F0D8FA012228462021FEF7F3
:10463000E4FB042003F0D0FA012070BD20212846BD
:10464000FEF7D2FB0028CED1002228461021FEF72B
:10465000D4FB002070BD0000001C02582DE9F05F63
:10466000B64D0024E86A20B94C21012005F0DAFF9C
:10467000E862FF20FCF741FB01274FF0FF09AA2366
:104680004FF0800BAC214FF0090AFC224FF02008BC
:1046900000262528E86A0370417080F84A2080F8D7
:1046A0004B9000F0B580877081780220FCF778FB92
:1046B000E86A467580F81680817D1620FCF770FB4D
:1046C000E86A0321C175C17D1720FCF769FBE86A20
:1046D00054210176017E1820FCF762FBE86A4677D8
:1046E000417F1D20FCF75CFBE86A80F81E80817F1B
:1046F0001E20FCF755FBE86A80F81FA0C17F1F2031
:10470000FCF74EFBE86A80F8489090F84810482083
:10471000FCF746FBE86AC67606774676417E1920A6
:10472000FCF73EFBE86A0A218176817E1A20FCF7BD
:1047300037FBE86AC77480F814B046734674417C4E
:104740001120FCF72DFBE86A46218174817C122040
:10475000FCF726FBE86A80F849602C21C173C17B15
:104760000F20FCF71DFBE86A8773817B0E20FCF7A6
:1047700017FBE86AC67280F80CA0C7701921017493
:10478000017C1020FCF70CFBE86A4671417905209A
:10479000FCF706FBE86A0421817181790620FCF7A9
:1047A000FFFAE86AC671C1790720FCF7F9FAE86AEE
:1047B00064210172017A0820FCF7F2FAE86A467275
:1047C000867206713427E86A00EB44000684018C87
:1047D00008EB440080B20222FCF7B0FAE86A00EB72
:1047E00044008686818E07EB440080B20222FCF7EB
:1047F000A5FA641C062CE6DB7820A870A978562060
:10480000FCF7CEFABDE8F05F2521FF20FCF7C8BA1F
:104810000220FCF772FAE96A88704E751720FCF7DF
:104820006CFAE96AC8751820FCF767FAE96A087635
:104830001D20FCF762FAE96A48771E20FCF75DFA52
:10484000E96A88771F20FCF758FAE96AC877482098
:10485000FCF753FAE96A81F848001920FCF74DFA91
:10486000E96A48761A20FCF748FAE96A8876162041
:10487000FCF743FAE96A8875CF7481F814B0112007
:10488000FCF73BFAE96A48741220FCF736FAE96A49
:1048900088740F20FCF731FAE96AC8730E20FCF720
:1048A0002CFAE96A8873CE7281F80CA01020FCF70C
:1048B00024FAE96A08740520FCF71FFAE96A4871CE
:1048C0000620FCF71AFAE96A88710720FCF715FA46
:1048D000E96AC8710820FCF710FAE96A0872042036
:1048E000FCF70BFAE96A0871342608EB440080B241
:1048F0000221FCF7CDF9E96A01EB4401088406EBDB
:10490000440080B20221FCF7C3F9E96A01EB4401DB
:104910008886641C062CE8DB5620FCF7EEF9A870AC
:10492000A878F02898BFBDE8F09FF020A870A9787B
:104930005620BDE8F05FFCF733BA0000E401002424
:104940001B4870B586B0016841F001010160016843
:1049500001F001010591016841F004010160016865
:1049600001F004010591016841F0800101600068D7
:1049700003250026694600F08000059002200124EE
:10498000CDE902050B48CDE90046FEF717F96003B3
:104990006946CDE900060848CDE90245FEF70EF963
:1049A0000C20009005486946FEF708F906B070BD76
:1049B000E04402580000025800080258001C025847
:1049C00008B500206B460122014600901F48FDF704
:1049D00067FF1E48012200216B46FDF761FF00982A
:1049E00010F0040F04BF012008BD00226B461748D9
:1049F0001146FDF755FF009810F4805F14D013485E
:104A00001F2200216B46FDF74BFF009810F4805FDA
:104A100004BF062008BD00F01C00182812D008288A
:104A200009D014280CD00FE04FF40451814309D071
:104A300010F4005F01D0032008BD10F4807F03D084
:104A4000042008BD022008BD052008BD7007002411
:104A5000F0B585B00024264625460294FBF79DFC60
:104A6000524F012211033846FEF7C7F9642003F0C4
:104A700079F8002238464FF48051FEF7BEF96420E1
:104A800003F070F8FBF78BFC00F060FC48480178FD
:104A90008DF8001041788DF8011081788DF80210A2
:104AA000C1788DF8031001798DF8041040798DF8E4
:104AB000050041483F4901600121C0F804D001725E
:104AC0003E4901613E49C1604FF4BF614161FDF75C
:104AD00083FC3948FDF726FF00204FF4004100F029
:104AE000BBF80028B8BF6FF003051EDB002002A949
:104AF00000F0A4F800280ADB029810F4004F14D04C
:104B000000222D4802AB1146FDF7CAFE10B16FF02E
:104B100004050AE00A2003F025F8641CB4F5FA7FC6
:104B200003D2029810F4004FEAD12348002103ABCE
:104B300032460396FDF7B4FE03980021324640F456
:104B40008050039083B21C48FDF7F8FF002D04BF8E
:104B50004FF47A7003F006F80024FFF731FF0128C4
:104B60000CD80A2002F0FEFF641CB4F5FA7F01D3D2
:104B7000012503E0FFF724FF0128F2D9FFF720FF0A
:104B8000022808BF0FA00BD0032808BF15A007D02C
:104B9000042808BF1BA003D0052808BF20A001D10E
:104BA000FBF71CFD05B02846F0BD0000000C0258C4
:104BB00060F20224008002407007002400000430EC
:104BC000600004304C414E383732303A3130304D8D
:104BD000622F732046756C6C4475706C65780D0A95
:104BE000000000004C414E383732303A3130304D01
:104BF000622F732048616C664475706C65780D0A8D
:104C0000000000004C414E383732303A31304D62AE
:104C10002F732046756C6C4475706C65780D0A00B6
:104C20004C414E383732303A31304D622F73204884
:104C3000616C664475706C65780D0A000B4602461F
:104C40000448002110B5FDF72BFE002818BF4FF0D7
:104C5000FF3010BD700700240B46024604480021B7
:104C600010B5FDF76BFF002818BF4FF0FF3010BDE7
:104C7000700700242DE9F84F1F46194B83460C4658
:104C80000A981B6833B13B460090584600F0E8F99B
:104C9000BDE8F88FA2EB0B01491C8DB2BC4288BF66
:104CA000BDE8F88FDFF83C9086B2DFF83CA00AF14F
:104CB00002082146584600F019F8B9F80800AAF889
:104CC00000000020002D05D9A8F80060401C80B22B
:104CD0008542F9D8601C84B2BC42EAD9BDE8F88F9D
:104CE0005007002464060024FEFF07602DE9F80742
:104CF000DFF8AC820B0ACCB2DFF8A8924146050A75
:104D0000B8F8046000F0FF0C8A8909F102074989AC
:104D1000A6F5134ABAF1410A1CBFA6F5A04ABAF596
:104D2000447A5CD0A6F5C85ABAF1630A7ED0A6F5DB
:104D3000AA4010381CBFBDE8F8077047ADF8001056
:104D4000BDF80000ADF80000BDF80000A9F80000B3
:104D5000ADF80050BDF80000ADF80000BDF800004F
:104D60003880481CADF80000BDF80000ADF8000028
:104D7000BDF80000A9F80000ADF800C0BDF80000C3
:104D8000ADF80000BDF800003880ADF80020BDF897
:104D90000000ADF80000BDF80000A9F80000ADF873
:104DA0000030BDF80000ADF80000BDF8000038800C
:104DB000501CADF80000BDF80000ADF80000BDF8D3
:104DC0000000A9F80000ADF80040BDF80000ADF803
:104DD0000000BDF800003880BDE8F8077047ADF866
:104DE0000010BDF80000ADF80000BDF80000A9F803
:104DF0000000ADF80050BDF80000ADF80000BDF8AF
:104E000000003880ADF800C0BDF80000ADF800002B
:104E1000BDF800003880ADF80020BDF80000ADF806
:104E20000000BDF80000A9F8000000E014E0ADF8B3
:104E30000030BDF80000ADF80000BDF8000038807B
:104E4000ADF80040BDF80000ADF80000BDF800006E
:104E50003880BDE8F8077047514E98F806A0BAF1BF
:104E6000000F368866D0ADF80010BDF80000ADF830
:104E70000000BDF80000A9F80000ADF80050BDF832
:104E80000000ADF80000BDF800003880ADF800C0AB
:104E9000BDF80000ADF80000BDF800003880701EBD
:104EA000010AADF80010BDF80010ADF80010BDF813
:104EB00000103980C0B2ADF80000BDF80000ADF8B8
:104EC0000000BDF800003880ADF80020BDF80000FB
:104ED000ADF80000BDF80000A9F80000ADF8003002
:104EE000BDF80000ADF80000BDF800003880ADF856
:104EF0000040BDF80000ADF80000BDF800003880AB
:104F0000B8F80200401E010AADF80010BDF800100C
:104F1000ADF80010BDF800103980C0B2ADF8000047
:104F2000BDF80000ADF80000BDF800003880BDE815
:104F3000F8077047301AADF80010401E80B2BDF877
:104F40000010ADF80010BDF80010A9F80010002105
:104F5000ADF80010BDF800C0ADF800C0BDF800C04D
:104F6000A7F800C0ADF80010BDF80010ADF80010B3
:104F7000BDF800103980010AADF80010BDF800102E
:104F8000ADF80010BDF800103980C0B2ADF80000D7
:104F9000BDF80000ADF80000BDF80000388093E7D0
:104FA00064060024FEFF0760024803490089088068
:104FB0007047000064060024FEFF0760254870B5B6
:104FC00086B0016841F002010160016801F0020150
:104FD0000591016841F080010160016801F08001E4
:104FE0000591016841F00801016000680124032572
:104FF000194E00F00800059002206946CDE9000432
:10500000CDE902453046FDF7D9FD012230460221A7
:10501000FDF7F3FE114E6003CDE90004CDE9024532
:1050200069463046FDF7CAFD012230465103FDF7BF
:10503000E4FE21033046CDE90014CDE9024569467E
:10504000FDF7BCFD002230462103FDF7D6FE06B079
:1050500070BD0000E044025800040258000C0258E1
:105060002DE9F003284F4FF0000C069E7C7D002CAC
:1050700018BF044606D17D680C46A91A1A46281A9C
:10508000431E491E3868121B97F81480DFF87C9085
:10509000851A00FB0140FF696D1E59F82880ADB2EA
:1050A00007FB00841A48076847F40007076019489F
:1050B0004FF440370760022747630564056825F011
:1050C00001050560C463591AFB03491C03EB024246
:1050D000114341648663016841F001010160416848
:1050E00011F0020F08D10CF1010CBCF5001F03D226
:1050F000416811F0020FF6D0816841F00201816031
:10510000BDE8F0037047000050070024240000248D
:10511000D8440258001000520323002219215807D6
:1051200010B500F015F8122103230122080700F042
:105130000FF8182103230222C80600F009F8032300
:105140001B211A46BDE81040C80700F001B8000056
:1051500030B5194C85B0D4F800C02CF4803CC4F8AC
:1051600000C0164DD5F800C02CF0010CC5F800C0E9
:10517000019000208DF808104FF0010C8DF80C0004
:105180008DF809008DF80D008DF800C08DF80A002B
:105190008DF80E0068468DF801208DF80B308DF8E3
:1051A0000FC0FDF75DFE05202860206840F48030C8
:1051B000206005B0002030BD24ED00E094ED00E05B
:1051C000404870B586B0016841F4807101600068A4
:1051D00069463D4E00F48070059002200090012049
:1051E00001900290032003903046FDF7E7FC012276
:1051F00030460221FDF701FE052002F0B3FC00223B
:1052000030460221FDF7F9FD142002F0ABFC01F05D
:10521000C5FB052002F0A6FC41F60104A54208D01A
:10522000002002F09DFB05460A2002F09BFCA542EF
:10523000F6D1012230460221FDF7DFFD142002F0F5
:1052400091FC002230460221FDF7D7FD0A2002F032
:1052500089FC02F039FB1D4D2868017EC07D6FF08E
:10526000EF0240F61F2302EB0020084440F2DF115A
:1052700080B2002202F0B5FB0924352002F070FB59
:105280003520214602F08BFB052002F06BFC352017
:1052900002F066FB09280BD03520214602F07FFB87
:1052A000052002F05FFC352002F05AFBA042F3D14A
:1052B0002868C17B807B01EB002002F0FFFB06B079
:1052C000002070BDE0440258002002581002002463
:1052D000104800224FF40051FDF78FFD0EA0FBF7A0
:1052E0007DF94FF47A7002F03DFC11A0FBF776F9DE
:1052F0004FF47A7002F036FCBFF34F8F114801680B
:10530000114A01F4E06111430160BFF34F8F00BF08
:10531000FDE70000000C02584D656D204163636598
:105320007373204572726F7221210D0A0000000014
:10533000536F6674205265736574696E672E2E2EE6
:105340000D0A00000CED00E00400FA0570B5184CE1
:1053500084B0206820F480302060164E306820F041
:105360000100306014480121019007208DF80800E9
:1053700003208DF80B0000208DF80F1005258DF807
:105380000E008DF800108DF80D108DF80A008DF8C4
:1053900001508DF809008DF80C006846FDF760FD9E
:1053A0003560206840F48030206004B070BD00009B
:1053B00024ED00E094ED00E00000043070470000B0
:1053C00070B505460D480E4614468078002818BF73
:1053D000122001D0107070BD2B78012B18BF022B4A
:1053E00004D0032B1CBF042B0120F3D1FBF726F8BC
:1053F0006E61FBF727F80020207070BD9401002437
:1054000070B586B000F0CAF8534A00241463947053
:10541000D4701472D471D460D46102F134019461F7
:10542000204654615470947294710C54401CC0B264
:105430000828FAD314714FF4F2605471474994620A
:105440001462401E000401F8014B000CF9D14449DC
:105450004FF48070401E000401F8014B000CF9D19C
:10546000DFF8F8C0431C00EB400505EBC000D9B2E3
:105470000CEBC00001EB410505EBC1010CEBC101D8
:10548000416138A10165D8B21528EBD300EB40018A
:1054900001EBC00033A10CEBC000446101654FF487
:1054A00034713148C2F824C0D462491E090400F89E
:1054B000014B090CF9D1DFF8B0C00020411C00EB12
:1054C00040008BB20CEBC00003EB43030CEBC303B7
:1054D0000470436023A3436188B21D28EED300EB20
:1054E000400020A10CEBC000047044604161C2F890
:1054F00010C001F08DF801F0CFF81C4803254FF6DD
:10550000FF71802602963F23CDE900100021CDE9EE
:10551000034500F5FE72164800F028FC3F2005AA5E
:1055200014A100F031FD17484FF6FE7102963E239C
:1055300000F5FE72CDE9001013480021CDE90345C6
:1055400000F014FC3E2005AA10A100F01DFD06B0DD
:10555000BDE8704000F036B89401002490E70224C2
:1055600090E602243F000000C0DF022490E4022401
:105570007568000875432F4F532D49492049646CC5
:105580006500000090E20224A968000875432F4FCF
:10559000532D49492053746174000000064880214E
:1055A0000022491E40F8042BFBD10549034820F096
:1055B000070008607047000060F0022460F20224D7
:1055C000D8010024704700000549C879012818BF98
:1055D00070478878FF283CBF401C887070470000E7
:1055E0009401002470B5174CE079012818BF70BDF4
:1055F000FAF724FF0546A17821B1481E10F0FF01FB
:10560000A1701AD1E078C0B90F48A1790F4A415C66
:10561000525C805C00EBC100C2B20D48627150F870
:105620002210A1622079824207D0C86B401CC86357
:10563000E068401CE060FAF721FF2846BDE87040B2
:10564000FAF700BF94010024CCFB0008C801002435
:1056500090E602242DE9F04106461F480F460078E7
:1056600000281CBF0020BDE8F081FAF7E7FEDFF854
:105670006C80D8F8004014B16168C8F80010FAF7DF
:10568000E1FE34B3FAF7DAFE014615480568BDB10C
:105690002A6802600846FAF7D5FE06EB8700022169
:1056A000C5E90160EE6000202E61AF82E8822170C2
:1056B00020810CA065606061204600F09FFF08E03B
:1056C000D8F8000060600846C8F80040FAF7BAFE53
:1056D00000242046BDE8F08196010024A4010024A6
:1056E000D40100243F0000002DE9F05F044600785B
:1056F0008B461546022818BF012001D0107023E008
:1057000030480078002818BF0F20F7D1FAF796FE2E
:105710008246A07A002814BF01260026DFF8A88060
:10572000DFF8A8900027BBF1000F07D0BBF1010FF5
:1057300023D05046FAF786FE072004E03EB15046DB
:10574000FAF780FE492028702046BDE8F09F20A08F
:1057500060616068D8F800100160C8F80000277028
:10576000D9F80000606050462781C9F80040FAF778
:1057700069FE00202F70BDE8F09F40B10223204653
:105780000422002100F08CFEA07A0028F6D110A09F
:1057900060616068D8F800100160C8F800002770E8
:1057A000D9F80000606050462781C9F80040FAF738
:1057B00049FE002E18BF00F08FFF2F700020BDE8BB
:1057C000F09F000096010024D4010024A4010024CD
:1057D0003F0000002DE9F047054600788846144652
:1057E000022804D0012010700020BDE8F087304866
:1057F000007820B1022010700020BDE8F0872D480D
:10580000007820B10D2010700020BDE8F087FAF775
:1058100015FE6B6881460026D88A80B11869011D83
:1058200019610568D88A401ED8829868814204BFF1
:10583000586818614846FAF705FE267034E01E4F96
:105840003A6892F8340040F0040082F8340082F89C
:1058500035602846C2F8308000F09EFE4846FAF7D0
:10586000F1FD00F039FFFAF7E9FD8046386890F85D
:105870003510002904BF456A26700AD0022904BFEA
:1058800000250E2004D0294600F058FE00250A20ED
:105890002070386880F8346080F83560C661066230
:1058A00046624046FAF7CEFD2846BDE8F087000084
:1058B0009601002497010024B401002470B5044629
:1058C00000780D4602281CBF012070BDFAF7B6FD16
:1058D0000646A07A58B1002329460422204600F04B
:1058E000DFFD3046FAF7AEFD00F0F6FE19E0606825
:1058F000C18A828A914204D33046FAF7A3FD1E2062
:1059000070BDC268111DC1601560C18A491CC18289
:10591000D0E902128A4204BF4168C1603046FAF7FA
:1059200091FD002070BD70B5054600780C46022838
:105930001CBF012070BDFAF781FD01464FF0000C3D
:10594000A87A05F10B0304F10802207413F8010B87
:1059500002F8010B0CF1010000F0FF0CBCF1080F84
:10596000F4D36868C28A002A1CBF026912682260E8
:10597000C28AA280808AE0800846FAF763FD002090
:1059800070BD000010B5094CE079012818BF10BDAA
:10599000FAF754FDA17821B9E178FF293CBF491CF1
:1059A000E170BDE81040FAF74DBD000094010024FD
:1059B00010B50D4CE079012818BF10BDFAF73EFD77
:1059C000A17831B9E17821B1491E11F0FF01E170F0
:1059D00003D0BDE81040FAF735BDFAF733FDBDE856
:1059E000104000F079BE00009401002470B5054617
:1059F0000E48007800281CBF002070BDFAF71EFD7D
:105A000001460B4804680CB1626802600846FAF768
:105A100019FD4CB10320207000202581606005A095
:105A20006061204600F0EAFD204670BD960100242A
:105A3000A40100243F0000002DE9F047044600784F
:105A40008A461546032818BF012001D0107021E0B6
:105A500029480078002818BF0F20F7D1FAF7EEFC8C
:105A60008146A07A002814BF01260026DFF88C802A
:105A70000027BAF1000F07D0BAF1010F1DD0484638
:105A8000FAF7E0FC072004E03EB14846FAF7DAFCFA
:105A9000492028702046BDE8F08719A06061277072
:105AA000D8F80000606048462781C8F80040FAF73F
:105AB000C9FC00202F70BDE8F08740B102232046CA
:105AC0000122002100F0ECFCA07A0028F6D10CA005
:105AD00060612770D8F80000606048462781C8F8E8
